{
  "contractName": "TokenTokenToken",
  "abi": [
    {
      "constant": true,
      "inputs": [],
      "name": "name",
      "outputs": [
        {
          "name": "",
          "type": "string"
        }
      ],
      "payable": false,
      "stateMutability": "view",
      "type": "function"
    },
    {
      "constant": true,
      "inputs": [],
      "name": "decimals",
      "outputs": [
        {
          "name": "",
          "type": "uint256"
        }
      ],
      "payable": false,
      "stateMutability": "view",
      "type": "function"
    },
    {
      "constant": true,
      "inputs": [],
      "name": "totalSupply_",
      "outputs": [
        {
          "name": "",
          "type": "uint256"
        }
      ],
      "payable": false,
      "stateMutability": "view",
      "type": "function"
    },
    {
      "constant": false,
      "inputs": [],
      "name": "renounceOwnership",
      "outputs": [],
      "payable": false,
      "stateMutability": "nonpayable",
      "type": "function"
    },
    {
      "constant": true,
      "inputs": [],
      "name": "owner",
      "outputs": [
        {
          "name": "",
          "type": "address"
        }
      ],
      "payable": false,
      "stateMutability": "view",
      "type": "function"
    },
    {
      "constant": true,
      "inputs": [],
      "name": "shortcut",
      "outputs": [
        {
          "name": "",
          "type": "string"
        }
      ],
      "payable": false,
      "stateMutability": "view",
      "type": "function"
    },
    {
      "constant": false,
      "inputs": [
        {
          "name": "newOwner",
          "type": "address"
        }
      ],
      "name": "transferOwnership",
      "outputs": [],
      "payable": false,
      "stateMutability": "nonpayable",
      "type": "function"
    },
    {
      "inputs": [
        {
          "name": "_name",
          "type": "string"
        },
        {
          "name": "_shortcut",
          "type": "string"
        },
        {
          "name": "_totalSupply",
          "type": "uint256"
        },
        {
          "name": "_decimals",
          "type": "uint256"
        }
      ],
      "payable": false,
      "stateMutability": "nonpayable",
      "type": "constructor"
    },
    {
      "anonymous": false,
      "inputs": [
        {
          "indexed": true,
          "name": "from",
          "type": "address"
        },
        {
          "indexed": true,
          "name": "to",
          "type": "address"
        },
        {
          "indexed": false,
          "name": "value",
          "type": "uint256"
        }
      ],
      "name": "Transfer",
      "type": "event"
    },
    {
      "anonymous": false,
      "inputs": [
        {
          "indexed": true,
          "name": "previousOwner",
          "type": "address"
        }
      ],
      "name": "OwnershipRenounced",
      "type": "event"
    },
    {
      "anonymous": false,
      "inputs": [
        {
          "indexed": true,
          "name": "previousOwner",
          "type": "address"
        },
        {
          "indexed": true,
          "name": "newOwner",
          "type": "address"
        }
      ],
      "name": "OwnershipTransferred",
      "type": "event"
    },
    {
      "constant": true,
      "inputs": [],
      "name": "totalSupply",
      "outputs": [
        {
          "name": "",
          "type": "uint256"
        }
      ],
      "payable": false,
      "stateMutability": "view",
      "type": "function"
    },
    {
      "constant": true,
      "inputs": [
        {
          "name": "who",
          "type": "address"
        }
      ],
      "name": "balanceOf",
      "outputs": [
        {
          "name": "",
          "type": "uint256"
        }
      ],
      "payable": false,
      "stateMutability": "view",
      "type": "function"
    },
    {
      "constant": false,
      "inputs": [
        {
          "name": "to",
          "type": "address"
        },
        {
          "name": "value",
          "type": "uint256"
        }
      ],
      "name": "transfer",
      "outputs": [
        {
          "name": "",
          "type": "bool"
        }
      ],
      "payable": false,
      "stateMutability": "nonpayable",
      "type": "function"
    }
  ],
  "bytecode": "0x608060405234801561001057600080fd5b50604051610bfc380380610bfc83398101806040528101908080518201929190602001805182019291906020018051906020019092919080519060200190929190505050336000806101000a81548173ffffffffffffffffffffffffffffffffffffffff021916908373ffffffffffffffffffffffffffffffffffffffff16021790555083600290805190602001906100aa92919061011f565b5082600390805190602001906100c192919061011f565b508160048190555080600581905550600454600160003373ffffffffffffffffffffffffffffffffffffffff1673ffffffffffffffffffffffffffffffffffffffff16815260200190815260200160002081905550505050506101c4565b828054600181600116156101000203166002900490600052602060002090601f016020900481019282601f1061016057805160ff191683800117855561018e565b8280016001018555821561018e579182015b8281111561018d578251825591602001919060010190610172565b5b50905061019b919061019f565b5090565b6101c191905b808211156101bd5760008160009055506001016101a5565b5090565b90565b610a29806101d36000396000f3006080604052600436106100a4576000357c0100000000000000000000000000000000000000000000000000000000900463ffffffff16806306fdde03146100a957806318160ddd14610139578063313ce56714610164578063324536eb1461018f57806370a08231146101ba578063715018a6146102115780638da5cb5b146102285780639ffa00721461027f578063a9059cbb1461030f578063f2fde38b14610374575b600080fd5b3480156100b557600080fd5b506100be6103b7565b6040518080602001828103825283818151815260200191508051906020019080838360005b838110156100fe5780820151818401526020810190506100e3565b50505050905090810190601f16801561012b5780820380516001836020036101000a031916815260200191505b509250505060405180910390f35b34801561014557600080fd5b5061014e610455565b6040518082815260200191505060405180910390f35b34801561017057600080fd5b5061017961045f565b6040518082815260200191505060405180910390f35b34801561019b57600080fd5b506101a4610465565b6040518082815260200191505060405180910390f35b3480156101c657600080fd5b506101fb600480360381019080803573ffffffffffffffffffffffffffffffffffffffff16906020019092919050505061046b565b6040518082815260200191505060405180910390f35b34801561021d57600080fd5b506102266104ef565b005b34801561023457600080fd5b5061023d6105f1565b604051808273ffffffffffffffffffffffffffffffffffffffff1673ffffffffffffffffffffffffffffffffffffffff16815260200191505060405180910390f35b34801561028b57600080fd5b50610294610616565b6040518080602001828103825283818151815260200191508051906020019080838360005b838110156102d45780820151818401526020810190506102b9565b50505050905090810190601f1680156103015780820380516001836020036101000a031916815260200191505b509250505060405180910390f35b34801561031b57600080fd5b5061035a600480360381019080803573ffffffffffffffffffffffffffffffffffffffff169060200190929190803590602001909291905050506106b4565b604051808215151515815260200191505060405180910390f35b34801561038057600080fd5b506103b5600480360381019080803573ffffffffffffffffffffffffffffffffffffffff169060200190929190505050610873565b005b60028054600181600116156101000203166002900480601f01602080910402602001604051908101604052809291908181526020018280546001816001161561010002031660029004801561044d5780601f106104225761010080835404028352916020019161044d565b820191906000526020600020905b81548152906001019060200180831161043057829003601f168201915b505050505081565b6000600454905090565b60055481565b60045481565b60008073ffffffffffffffffffffffffffffffffffffffff168273ffffffffffffffffffffffffffffffffffffffff16141515156104a857600080fd5b600160008373ffffffffffffffffffffffffffffffffffffffff1673ffffffffffffffffffffffffffffffffffffffff168152602001908152602001600020549050919050565b6000809054906101000a900473ffffffffffffffffffffffffffffffffffffffff1673ffffffffffffffffffffffffffffffffffffffff163373ffffffffffffffffffffffffffffffffffffffff1614151561054a57600080fd5b6000809054906101000a900473ffffffffffffffffffffffffffffffffffffffff1673ffffffffffffffffffffffffffffffffffffffff167ff8df31144d9c2f0f6b59d69b8b98abd5459d07f2742c4df920b25aae33c6482060405160405180910390a260008060006101000a81548173ffffffffffffffffffffffffffffffffffffffff021916908373ffffffffffffffffffffffffffffffffffffffff160217905550565b6000809054906101000a900473ffffffffffffffffffffffffffffffffffffffff1681565b60038054600181600116156101000203166002900480601f0160208091040260200160405190810160405280929190818152602001828054600181600116156101000203166002900480156106ac5780601f10610681576101008083540402835291602001916106ac565b820191906000526020600020905b81548152906001019060200180831161068f57829003601f168201915b505050505081565b60008073ffffffffffffffffffffffffffffffffffffffff168373ffffffffffffffffffffffffffffffffffffffff16141515156106f157600080fd5b600160003373ffffffffffffffffffffffffffffffffffffffff1673ffffffffffffffffffffffffffffffffffffffff16815260200190815260200160002054821115151561073f57600080fd5b61079182600160003373ffffffffffffffffffffffffffffffffffffffff1673ffffffffffffffffffffffffffffffffffffffff168152602001908152602001600020546109c890919063ffffffff16565b600160003373ffffffffffffffffffffffffffffffffffffffff1673ffffffffffffffffffffffffffffffffffffffff1681526020019081526020016000208190555061082682600160008673ffffffffffffffffffffffffffffffffffffffff1673ffffffffffffffffffffffffffffffffffffffff168152602001908152602001600020546109e190919063ffffffff16565b600160008573ffffffffffffffffffffffffffffffffffffffff1673ffffffffffffffffffffffffffffffffffffffff168152602001908152602001600020819055506001905092915050565b6000809054906101000a900473ffffffffffffffffffffffffffffffffffffffff1673ffffffffffffffffffffffffffffffffffffffff163373ffffffffffffffffffffffffffffffffffffffff161415156108ce57600080fd5b600073ffffffffffffffffffffffffffffffffffffffff168173ffffffffffffffffffffffffffffffffffffffff161415151561090a57600080fd5b8073ffffffffffffffffffffffffffffffffffffffff166000809054906101000a900473ffffffffffffffffffffffffffffffffffffffff1673ffffffffffffffffffffffffffffffffffffffff167f8be0079c531659141344cd1fd0a4f28419497f9722a3daafe3b4186f6b6457e060405160405180910390a3806000806101000a81548173ffffffffffffffffffffffffffffffffffffffff021916908373ffffffffffffffffffffffffffffffffffffffff16021790555050565b60008282111515156109d657fe5b818303905092915050565b600081830190508281101515156109f457fe5b809050929150505600a165627a7a723058201d2e3ace1500d05ac43ad612849b08a5b135e1cc2ddd9803c1cc3f5a1231294f0029",
  "source": "pragma solidity ^0.4.23;\r\n\r\nimport \"./ERC20Basic.sol\";\r\nimport \"./SafeMath.sol\";\r\nimport \"./Ownable.sol\";\r\n\r\ncontract TokenTokenToken is Ownable, ERC20Basic {\r\n    using SafeMath for uint256;\r\n\r\n    mapping(address => uint256) private balances;\r\n    string public name;\r\n    string public shortcut;\r\n    uint256 public totalSupply_;\r\n    uint256 public decimals;\r\n\r\n    constructor(string _name, string _shortcut, uint256 _totalSupply, uint256 _decimals) public {\r\n        name = _name;\r\n        shortcut = _shortcut;\r\n        totalSupply_ = _totalSupply;\r\n        decimals = _decimals;\r\n        balances[msg.sender] = totalSupply_;\r\n    }\r\n\r\n    function totalSupply() public view returns (uint256) {\r\n        return totalSupply_;\r\n    }\r\n    \r\n    function balanceOf(address who) public view returns (uint256) {\r\n        require(who != address(0));\r\n\r\n        return balances[who];\r\n    }\r\n    \r\n    function transfer(address to, uint256 value) public returns (bool) {\r\n        require(to != address(0));\r\n        require(value <= balances[msg.sender]);\r\n\r\n        balances[msg.sender] = balances[msg.sender].sub(value);\r\n        balances[to] = balances[to].add(value);\r\n        return true;\r\n    }\r\n\r\n}",
  "sourcePath": "/media/dominik/Debian/Projects/ethereum-starter/backend/contracts/TokenTokenToken.sol",
  "compiler": {
    "name": "solc",
    "version": "0.4.23+commit.124ca40d.Emscripten.clang"
  },
  "schemaVersion": "2.0.0",
  "updatedAt": "2018-05-19T20:05:45.050Z"
}